{
  "contractName": "DuffToken",
  "abi": [
    {
      "inputs": [
        {
          "internalType": "uint256",
          "name": "_initialSupply",
          "type": "uint256"
        }
      ],
      "payable": false,
      "stateMutability": "nonpayable",
      "type": "constructor"
    },
    {
      "constant": true,
      "inputs": [
        {
          "internalType": "address",
          "name": "",
          "type": "address"
        }
      ],
      "name": "balanceOf",
      "outputs": [
        {
          "internalType": "uint256",
          "name": "",
          "type": "uint256"
        }
      ],
      "payable": false,
      "stateMutability": "view",
      "type": "function"
    },
    {
      "constant": true,
      "inputs": [],
      "name": "totalSupply",
      "outputs": [
        {
          "internalType": "uint256",
          "name": "",
          "type": "uint256"
        }
      ],
      "payable": false,
      "stateMutability": "view",
      "type": "function"
    }
  ],
  "bytecode": "0x608060405234801561001057600080fd5b506040516101993803806101998339818101604052602081101561003357600080fd5b810190808051906020019092919050505080600160003373ffffffffffffffffffffffffffffffffffffffff1673ffffffffffffffffffffffffffffffffffffffff16815260200190815260200160002081905550806000819055505060fb8061009e6000396000f3fe6080604052348015600f57600080fd5b506004361060325760003560e01c806318160ddd14603757806370a08231146053575b600080fd5b603d60a8565b6040518082815260200191505060405180910390f35b609260048036036020811015606757600080fd5b81019080803573ffffffffffffffffffffffffffffffffffffffff16906020019092919050505060ae565b6040518082815260200191505060405180910390f35b60005481565b6001602052806000526040600020600091509050548156fea265627a7a723158202f9c874288cebad16a832cbfa8713d1a418d49ecefb672e7fb238af2039b099164736f6c63430005100032",
  "source": "pragma solidity ^0.5.16;\n\ncontract DuffToken {\n    // we need a constructor\n    // way to set the tokens\n    // way to read the total number of tokens\n  uint256 public totalSupply;\n\n  mapping(address => uint256) public balanceOf;\n\n  constructor (uint256 _initialSupply) public {\n    // allocate initial supply\n    balanceOf[msg.sender] = _initialSupply;\n    totalSupply = _initialSupply;\n  }\n}\n",
  "sourcePath": "/Users/malcolm/Documents/Projects/DuffToken/contracts/DuffToken.sol",
  "compiler": {
    "name": "solc",
    "version": "0.5.16+commit.9c3226ce.Emscripten.clang"
  },
  "schemaVersion": "3.3.4",
  "updatedAt": "2021-03-28T00:31:20.716Z",
  "devdoc": {
    "methods": {}
  },
  "userdoc": {
    "methods": {}
  }
}