{
  "contractName": "DuffToken",
  "abi": [
    {
      "inputs": [],
      "payable": false,
      "stateMutability": "nonpayable",
      "type": "constructor"
    },
    {
      "constant": true,
      "inputs": [],
      "name": "totalSupply",
      "outputs": [
        {
          "internalType": "uint256",
          "name": "",
          "type": "uint256"
        }
      ],
      "payable": false,
      "stateMutability": "view",
      "type": "function"
    }
  ],
  "bytecode": "0x6080604052348015600f57600080fd5b50620f42406000819055506084806100286000396000f3fe6080604052348015600f57600080fd5b506004361060285760003560e01c806318160ddd14602d575b600080fd5b60336049565b6040518082815260200191505060405180910390f35b6000548156fea265627a7a723158207c99a6c16f1d702ad70a4f77e3c3e889724df6c57a2dd61a544287bafbee7a9b64736f6c63430005100032",
  "source": "pragma solidity ^0.5.16;\n\ncontract DuffToken {\n    // we need a constructor\n    // way to set the tokens\n    // way to read the total number of tokens\n  uint256 public totalSupply;\n\n  constructor () public {\n    totalSupply = 1000000;\n  }\n}\n",
  "sourcePath": "/Users/malcolm/Documents/Projects/DuffToken/contracts/DuffToken.sol",
  "compiler": {
    "name": "solc",
    "version": "0.5.16+commit.9c3226ce.Emscripten.clang"
  },
  "schemaVersion": "3.3.4",
  "updatedAt": "2021-03-27T22:23:41.643Z",
  "devdoc": {
    "methods": {}
  },
  "userdoc": {
    "methods": {}
  }
}